:10000000ADC00000BCC00000BAC00000B8C0000015
:10001000B6C00000B4C00000B2C00000B0C0000014
:10002000AEC0000068C70000AAC00000BCC300004A
:10003000A6C00000A4C00000A2C00000A0C0000034
:100040009EC000009CC000009AC0000098C0000044
:1000500096C0000094C0000092C0000090C0000054
:100060008EC000008CC000008AC0000088C0000064
:1000700086C000001201000200000020EB031720E0
:1000800000100102000109022200010100A0320952
:100090000400000103010100092111010001227285
:1000A00000070581030900010C03410054004D00C5
:1000B00045004C002C034100560052002000550022
:1000C0005300420020004B004500590042004F0001
:1000D0004100520044002000440045004D004F0004
:1000E0000403090405010906A1018501050719E0BA
:1000F00029E715002501750195088102950175080C
:1001000081019505750105081901290591029501DF
:1001100075039101950675081500256505071900F9
:1001200029658100C0050C0901A1018502050C1596
:100130000025017501950A09E909EA096F097009A5
:100140007209B50A2A020A26020A94010A9201815A
:100150000295068101C010010208040011241FBE8F
:10016000CFEFD2E0DEBFCDBF81E011E0A0E0B1E093
:1001700001C01D92AD31B107E1F7FCD600C740CFF9
:100180008FB7F89497EF94BF98E10FB6F8949093D7
:100190006000109260000FBE87FF01C07894089540
:1001A00013BE83B7856083BF889508959091EB0057
:1001B00091609093EB008093EC008091ED00827051
:1001C000862B8093ED008091ED0082608093ED009E
:1001D0008091EE00881F8827881F08951092E900FB
:1001E0008091EB0080FF02C080E008951092E9004A
:1001F00082E060E2DBCFDED321D6FDCFDDD39EC52A
:10020000FDDFF9CFE8EDF0E080818F77808380819A
:100210008068808308958091D80080628093D800A0
:1002200082E089BD09B400FEFDCFF8948091D8002A
:100230008F7D8093D8008091E0008E7F8093E000D6
:100240008091E0008B7F8093E000C8DF8091E20026
:1002500081608093E2008091E20088608093E200F8
:100260007894089580910001882329F481E0809397
:100270000001D1DF63D5809104019091050190FFC9
:1002800010C080910401909105019E7F909305011B
:100290008093040181E08093EA001092EA001092BA
:1002A0000E011092E9008091E80083FF01C01AC09E
:1002B000089509B400FC05C082E089BD09B400FEC0
:1002C000FDCF8091D8008F7D8093D800809102016E
:1002D000813039F48091E00082608093E0001092D8
:1002E000020108950F931F93DF93CF9300D0CDB7F2
:1002F000DEB78091E8008B7F8093E8001091F100D9
:100300000091F1000630F9F0073068F4013009F48B
:1003100013C1013008F498C1033009F44FC105300E
:1003200009F00DC2D2C0093009F4EFC00A3020F440
:10033000083009F004C2A4C00A3009F4BBC10B3074
:1003400009F0FDC1DAC1103809F0F9C16091F1007E
:100350008091F100813019F0823089F406C082E189
:1003600080930F0184E790E005C082E280930F0143
:1003700086E890E0909311018093100104C039D376
:10038000882309F4DCC18091F1008091F100809113
:10039000F10089838091F1008A838091E800877F52
:1003A0008093E80029813A8180910F0190E08217C3
:1003B000930730F48F719070892B21F461E003C0B2
:1003C00020930F0160E08091E8008F7E8093E80029
:1003D000209110013091110140910F0122C08091B4
:1003E000E80084FF03C0F90190E00FC08091E800AD
:1003F00080FFF5CFF8CF542F5150903249F09F5FD6
:1004000084918093F1003196452F9F01442399F701
:100410008091E80084FD12C08091E8008E7F809377
:10042000E800442339F42093100130931101109215
:100430000F010AC08091E80084FFD8CF20931001FB
:100440003093110140930F01613069F48091E8000D
:1004500084FD09C08091E80080FFFCCF8091E80016
:100460008E7F8093E8008091E80084FFFCCF80912C
:10047000E8008F7E8093E8008091E8008B7F22C0A7
:10048000103809F05CC18091E800877F8093E80014
:1004900080910E018093F1008091E8008E7F80931F
:1004A000E8008091E8008F778093E8008091E80071
:1004B00082FFFCCF8091E8008B7F8093E8008091E1
:1004C000E8008F778093E8004CC1112309F037C111
:1004D0009091F1008091E3009F778078982B909322
:1004E000E3008091E800877F8093E8008091E80036
:1004F0008E7F8093E8008091E80080FFFCCF8091A0
:10050000E30080688093E3002CC1112309F017C138
:100510009091F100923008F012C18091E800877F3D
:100520008093E80090930E018091E8008E7F809385
:10053000E800892FFDD315C1112321F0123009F0F5
:10054000FEC00DC08091F100813009F0F8C08091AB
:1005500003018D7F80930301109202016CC0809192
:10056000F1009091F100882309F0E9C0E091F100D9
:10057000EF77E093E9008091EB0080FF4DC0EE2320
:10058000B1F08091EB0080618093EB0081E090E01E
:100590000E2E02C0880F991F0A94E2F78093EA009A
:1005A0001092EA008091EB0088608093EB0010923B
:1005B000E900F0E0E95FFE4F10823DC0112321F019
:1005C000123009F0BCC00DC09091F100913009F0DB
:1005D000B6C0809103018260809303019093020171
:1005E0002AC08091F1009091F100882309F0A7C002
:1005F000E091F100EF7751F48091EB0080628093FD
:10060000EB008091E800877F8093E800E093E900A9
:100610008091EB0080FD03C01092E90090C08091B2
:10062000EB0080628093EB001092E900F0E0E95F5C
:10063000FE4F81E080838091E800877F8093E8000F
:100640008091E8008E7F3ECF8091F1008091F10093
:10065000E091F100113869F0123899F0103809F082
:100660006EC08091E800877F8093E800809103014D
:1006700013C08091E800877F8093E8001092F1001A
:100680000DC08091E800877F8093E800F0E0EF776D
:10069000F070E95FFE4F80818093F1001092F100CD
:1006A0008091E8008E7F8093E8008091E80082FFCF
:1006B000FCCF00CF113809F042C08091F100809149
:1006C000F1009091F10099839091F1009A83882331
:1006D000B1F58091E800877F8093E80089819A8155
:1006E00071D18093F1008091E8008E7F8093E800C3
:1006F0008091E80082FFFCCFDDCE113001F56091E2
:10070000F1008091F1009091F10099839091F100B6
:100710009A838823A1F48091E800877F8093E80082
:1007200089819A8151D11092E9008091E8008E7FF1
:100730008093E8008091E80080FFFCCF12C0812FF9
:10074000602FCCD2882369F48091EB008062809383
:10075000EB008091E800877F8093E80081E0809340
:1007600007010F900F90CF91DF911F910F91089586
:10077000282F16C0109213011092120109C0809107
:10078000120190911301019690931301809312012D
:100790008091120190911301845F914080F3215068
:1007A000222341F708951F920F920FB60F92112442
:1007B0002F933F934F935F936F937F938F939F9369
:1007C000AF93BF93EF93FF938091E10082FF08C046
:1007D0008091E20082FF04C08BEF8093E10085D31B
:1007E0008091E10080FF2AC08091E20080FF26C056
:1007F00081E0809301018FEE8093E10080910401FC
:1008000090910501806290930501809304018EEF21
:100810008093E1008091E20080618093E20080910A
:10082000E2008F7D8093E2008091D8008062809307
:10083000D80089B58D7F89BD19BC8BD38091E1002B
:1008400084FF72C08091E20084FF6EC009B400FC96
:1008500005C082E089BD09B400FEFDCF8091D800BB
:100860008F7D8093D8008FEE8093E100809101010D
:10087000882309F459C08091E20080628093E200ED
:100880008091E20088608093E2009FEE02C0909326
:10089000E1008091E10084FDFACF82E069DF809180
:1008A000E10082FD08C08091E10085FD04C08091D7
:1008B000E10083FF1CC08091E2008F7E8093E20004
:1008C00080910401909105018064909305018093CB
:1008D00004018091E20081608093E2008091E20057
:1008E00080628093E2008091E20088601BC080916A
:1008F000E10084FD4EC08091FB008F7D8093FB0062
:100900008091FB0080688093FB008091FB008F7BCF
:100910008093FB008091FB008F738093FB0080919C
:10092000E2008F7E8093E2008091E10085FF1CC091
:100930008091E20085FF18C0109201018091E200D1
:100940008F7E8093E2008FED8093E1008091E20042
:100950008F7D8093E2008091040190910501806871
:1009600090930501809304018091E10083FF11C001
:100970008091E20083FF0DC087EF8093E1002EDCC1
:1009800080910401909105019160909305018093FD
:100990000401FF91EF91BF91AF919F918F917F9152
:1009A0006F915F914F913F912F910F900FBE0F90DC
:1009B0001F90189557CC0895E3E6F0E080818E7F74
:1009C000808320CC80E00895892B91F481E080938E
:1009D000E9008091EB0080618093EB0082E08093DE
:1009E000EA001092EA008091EB0088608093EB00AF
:1009F00008958330F1F4613059F0613018F06230BD
:100A0000C1F40CC084E080930F0180EE90E00BC035
:100A10008CE080930F0188EA90E005C08CE280931F
:100A20000F0184EB90E0909311018093100181E01D
:100A3000089580E00895DF93CF9300D000D0CDB724
:100A4000DEB78091F1008B838091F1008C8382E787
:100A500080930F0184EE90E0909311018093100138
:100A60008091F10089838091F1008A838091E80070
:100A7000877F8093E80089819A818337910528F0E8
:100A800040910F0124EE30E01CC080930F01F8CF9D
:100A90008091E80080FFFCCFF90190E00AC0542F5C
:100AA0005150903249F09F5F84918093F1003196CC
:100AB000452F9F01442399F78091E8008E7F809312
:100AC000E800442359F08091E80082FFE1CF3093A1
:100AD00011012093100140930F0106C030931101C2
:100AE0002093100110920F018091E80082FFFCCF4B
:100AF0008091E8008B7F8093E8008091E8008F77F9
:100B00008093E8000F900F900F900F90CF91DF919E
:100B100008958091E800877F8093E8008091E80045
:100B20008E7F8093E8008091E80082FFFCCF809167
:100B3000E8008B7F8093E8008091E8008F778093B6
:100B4000E8008091E8008E7F8093E8000895DF93AD
:100B5000CF9300D0CDB7DEB78091F100898380912B
:100B6000F1008A838091E800877F8093E80060939A
:100B700006018091E8008E7F8093E8008091E80074
:100B800080FFFCCF0F900F90CF91DF910895DF93FE
:100B9000CF9300D000D0CDB7DEB78091F1008B832A
:100BA0008091F1008C838091F10089838091F10024
:100BB0008A838091E800877F8093E80089819A8109
:100BC000892B49F0809106018093F1008091E80023
:100BD0008E7F8093E8008091E80082FFFCCF8091B7
:100BE000E8008B7F8093E8008091E8008F77809306
:100BF000E8000F900F900F900F90CF91DF91089524
:100C0000DF93CF9300D000D0CDB7DEB78091F10055
:100C10008B838091F1008C8389E080930F0188E9B8
:100C200090E090931101809310018091F1008983ED
:100C30008091F1008A838091E800877F8093E800AB
:100C400089819A818A30910528F040910F0128E925
:100C500030E01CC080930F01F8CF8091E80080FF46
:100C6000FCCFF90190E00AC0542F5150903249F066
:100C70009F5F84918093F1003196452F9F0144231B
:100C800099F78091E8008E7F8093E800442359F023
:100C90008091E80082FFE1CF309311012093100191
:100CA00040930F0106C03093110120931001109260
:100CB0000F018091E80082FFFCCF8091E8008B7FDC
:100CC0008093E8008091E8008F778093E8000F9090
:100CD0000F900F900F90CF91DF9108952091F10028
:100CE0009091F100813859F4663001F5913219F094
:100CF0009232E1F402C084DF17C09DDE15C081325C
:100D000069F4693019F06A3089F404C0923071F4E2
:100D100000DF0AC0822F692F1ADF06C0813A31F442
:100D2000623021F4822F33DF81E0089580E008955E
:100D300081E08093E90081EC60E038CA10921C01E8
:100D400010921B0110921A018AB1807E8AB98BB170
:100D50008F618BB910921801E2EEF0E0808184601F
:100D60008083089590911A01992321F0913009F020
:100D700064C02CC04C9906C081E080931A0186E5BE
:100D800091E019C0489B4AC0499906C081E0809310
:100D90001A0188E591E00FC04B9906C081E080936D
:100DA0001A0189E591E007C04A9947C081E0809324
:100DB0001A018AE591E0909315018093140181E076
:100DC00090E09093170180931601089520911601E9
:100DD0003091170121153105F1F080911B01882315
:100DE00061F580911C01882341F5E0911401F09197
:100DF00015013196F0931501E09314013197E491B8
:100E0000E0931901215030403093170120931601CF
:100E100090931B01089510921A01089581E0809328
:100E20001A0187E591E0909315018093140181E008
:100E300090E09093170180931601089580910E0120
:100E4000882309F451C080911B01882349F48091C3
:100E50001801843608F448C085DF109218010895FF
:100E600091E09093E9008091E80085FF3DC080917A
:100E70001C018823E9F490931C0182E08093F10027
:100E8000809119018093F1001092F1001092F1000D
:100E90001092F1001092F1001092F1001092F10006
:100EA0001092F1008091E8008F778093E800089518
:100EB00010921B0110921C0182E08093F1001092AD
:100EC000F1001092F1001092F1001092F1001092D6
:100ED000F1001092F1001092F1001092F100809157
:100EE000E8008F778093E8000895809118018F5F64
:100EF0008093180108951F920F920FB60F9211243C
:100F00002F933F934F935F936F937F938F939F9311
:100F1000AF93BF93EF93FF93E8E6F0E080818E7F7D
:100F20008083D89AEBE6F0E080818E708083C1D90F
:100F3000FF91EF91BF91AF919F918F917F916F91B1
:100F40005F914F913F912F910F900FBE0F901F9087
:100F5000189580910201813059F480916B00816F66
:100F600080936B00D89A80916800816080936800BC
:100F7000789416C905D944D980E090E00895F89492
:020F8000FFCFA1
:00000001FF
